{
  "contractName": "MultiSigWallet",
  "abi": [
    {
      "constant": true,
      "inputs": [],
      "name": "quorum",
      "outputs": [
        {
          "name": "",
          "type": "uint256"
        }
      ],
      "payable": false,
      "stateMutability": "view",
      "type": "function"
    },
    {
      "constant": true,
      "inputs": [],
      "name": "nextId",
      "outputs": [
        {
          "name": "",
          "type": "uint256"
        }
      ],
      "payable": false,
      "stateMutability": "view",
      "type": "function"
    },
    {
      "constant": true,
      "inputs": [
        {
          "name": "",
          "type": "uint256"
        }
      ],
      "name": "transfers",
      "outputs": [
        {
          "name": "id",
          "type": "uint256"
        },
        {
          "name": "amount",
          "type": "uint256"
        },
        {
          "name": "to",
          "type": "address"
        },
        {
          "name": "approvals",
          "type": "uint256"
        },
        {
          "name": "sent",
          "type": "bool"
        }
      ],
      "payable": false,
      "stateMutability": "view",
      "type": "function"
    },
    {
      "constant": true,
      "inputs": [
        {
          "name": "",
          "type": "uint256"
        }
      ],
      "name": "approvers",
      "outputs": [
        {
          "name": "",
          "type": "address"
        }
      ],
      "payable": false,
      "stateMutability": "view",
      "type": "function"
    },
    {
      "constant": true,
      "inputs": [
        {
          "name": "",
          "type": "address"
        },
        {
          "name": "",
          "type": "uint256"
        }
      ],
      "name": "approvals",
      "outputs": [
        {
          "name": "",
          "type": "bool"
        }
      ],
      "payable": false,
      "stateMutability": "view",
      "type": "function"
    },
    {
      "inputs": [
        {
          "name": "_approvers",
          "type": "address[]"
        },
        {
          "name": "_quorum",
          "type": "uint256"
        }
      ],
      "payable": true,
      "stateMutability": "payable",
      "type": "constructor"
    },
    {
      "constant": false,
      "inputs": [
        {
          "name": "amount",
          "type": "uint256"
        },
        {
          "name": "to",
          "type": "address"
        }
      ],
      "name": "createTransfer",
      "outputs": [],
      "payable": false,
      "stateMutability": "nonpayable",
      "type": "function"
    },
    {
      "constant": false,
      "inputs": [
        {
          "name": "id",
          "type": "uint256"
        }
      ],
      "name": "sendTransfer",
      "outputs": [],
      "payable": false,
      "stateMutability": "nonpayable",
      "type": "function"
    }
  ],
  "bytecode": "0x6080604052604051610af4380380610af48339810180604052604081101561002657600080fd5b81019080805164010000000081111561003e57600080fd5b8281019050602081018481111561005457600080fd5b815185602082028301116401000000008211171561007157600080fd5b505092919060200180519060200190929190505050816000908051906020019061009c9291906100ab565b50806001819055505050610178565b828054828255906000526020600020908101928215610124579160200282015b828111156101235782518260006101000a81548173ffffffffffffffffffffffffffffffffffffffff021916908373ffffffffffffffffffffffffffffffffffffffff160217905550916020019190600101906100cb565b5b5090506101319190610135565b5090565b61017591905b8082111561017157600081816101000a81549073ffffffffffffffffffffffffffffffffffffffff02191690555060010161013b565b5090565b90565b61096d806101876000396000f3fe608060405234801561001057600080fd5b506004361061009a576000357c0100000000000000000000000000000000000000000000000000000000900480639377d711116100785780639377d71114610129578063d1c68d1e146101b7578063d3650fb8146101e5578063ffabc673146102535761009a565b80631703a0181461009f5780634c12fa47146100bd57806361b8ce8c1461010b575b600080fd5b6100a76102b9565b6040518082815260200191505060405180910390f35b610109600480360360408110156100d357600080fd5b8101908080359060200190929190803573ffffffffffffffffffffffffffffffffffffffff1690602001909291905050506102bf565b005b6101136104c8565b6040518082815260200191505060405180910390f35b6101556004803603602081101561013f57600080fd5b81019080803590602001909291905050506104ce565b604051808681526020018581526020018473ffffffffffffffffffffffffffffffffffffffff1673ffffffffffffffffffffffffffffffffffffffff168152602001838152602001821515151581526020019550505050505060405180910390f35b6101e3600480360360208110156101cd57600080fd5b8101908080359060200190929190505050610531565b005b610211600480360360208110156101fb57600080fd5b81019080803590602001909291905050506108d4565b604051808273ffffffffffffffffffffffffffffffffffffffff1673ffffffffffffffffffffffffffffffffffffffff16815260200191505060405180910390f35b61029f6004803603604081101561026957600080fd5b81019080803573ffffffffffffffffffffffffffffffffffffffff16906020019092919080359060200190929190505050610912565b604051808215151515815260200191505060405180910390f35b60015481565b600080905060005b600080549050811015610353573373ffffffffffffffffffffffffffffffffffffffff166000828154811015156102fa57fe5b9060005260206000200160009054906101000a900473ffffffffffffffffffffffffffffffffffffffff1673ffffffffffffffffffffffffffffffffffffffff16141561034657600191505b80806001019150506102c7565b50600115158115151415156103d0576040517f08c379a00000000000000000000000000000000000000000000000000000000081526004018080602001828103825260158152602001807f6f6e6c7920617070726f76657220616c6c6f776564000000000000000000000081525060200191505060405180910390fd5b60a06040519081016040528060035481526020018481526020018373ffffffffffffffffffffffffffffffffffffffff1681526020016000815260200160001515815250600260006003548152602001908152602001600020600082015181600001556020820151816001015560408201518160020160006101000a81548173ffffffffffffffffffffffffffffffffffffffff021916908373ffffffffffffffffffffffffffffffffffffffff1602179055506060820151816003015560808201518160040160006101000a81548160ff021916908315150217905550905050600360008154809291906001019190505550505050565b60035481565b60026020528060005260406000206000915090508060000154908060010154908060020160009054906101000a900473ffffffffffffffffffffffffffffffffffffffff16908060030154908060040160009054906101000a900460ff16905085565b600080905060005b6000805490508110156105c5573373ffffffffffffffffffffffffffffffffffffffff1660008281548110151561056c57fe5b9060005260206000200160009054906101000a900473ffffffffffffffffffffffffffffffffffffffff1673ffffffffffffffffffffffffffffffffffffffff1614156105b857600191505b8080600101915050610539565b5060011515811515141515610642576040517f08c379a00000000000000000000000000000000000000000000000000000000081526004018080602001828103825260158152602001807f6f6e6c7920617070726f76657220616c6c6f776564000000000000000000000081525060200191505060405180910390fd5b600015156002600084815260200190815260200160002060040160009054906101000a900460ff1615151415156106e1576040517f08c379a000000000000000000000000000000000000000000000000000000000815260040180806020018281038252601e8152602001807f7472616e736665722068617320616c7265616479206265656e2073656e74000081525060200191505060405180910390fd5b60001515600460003373ffffffffffffffffffffffffffffffffffffffff1673ffffffffffffffffffffffffffffffffffffffff168152602001908152602001600020600084815260200190815260200160002060009054906101000a900460ff16151514156107db576001600460003373ffffffffffffffffffffffffffffffffffffffff1673ffffffffffffffffffffffffffffffffffffffff168152602001908152602001600020600084815260200190815260200160002060006101000a81548160ff02191690831515021790555060026000838152602001908152602001600020600301600081548092919060010191905055505b60015460026000848152602001908152602001600020600301541015156108cf5760016002600084815260200190815260200160002060040160006101000a81548160ff02191690831515021790555060006002600084815260200190815260200160002060020160009054906101000a900473ffffffffffffffffffffffffffffffffffffffff1690506000600260008581526020019081526020016000206001015490508173ffffffffffffffffffffffffffffffffffffffff166108fc829081150290604051600060405180830381858888f193505050501580156108c7573d6000803e3d6000fd5b5050506108d0565b5b5050565b6000818154811015156108e357fe5b906000526020600020016000915054906101000a900473ffffffffffffffffffffffffffffffffffffffff1681565b60046020528160005260406000206020528060005260406000206000915091509054906101000a900460ff168156fea165627a7a723058203263788636fcc963848b51f0462d047518b37311e5674917898e44a1427b79b00029",
  "source": "pragma solidity ^0.5.2;\r\n\r\ncontract MultiSigWallet {\r\n  address[] public approvers;\r\n  uint public quorum;\r\n  struct Transfer {\r\n    uint id;\r\n    uint amount;\r\n    address payable to;\r\n    uint approvals;\r\n    bool sent;\r\n  }\r\n  mapping(uint => Transfer) public transfers;\r\n  uint public nextId;\r\n  mapping(address => mapping(uint => bool)) public approvals;\r\n\r\n  constructor(address[] memory _approvers, uint _quorum) payable public {\r\n    approvers = _approvers;\r\n    quorum = _quorum;\r\n  }\r\n\r\n  function createTransfer(uint amount, address payable to) onlyApprover() external {\r\n    transfers[nextId] = Transfer(\r\n      nextId,\r\n      amount,\r\n      to,\r\n      0,\r\n      false\r\n    );\r\n    nextId++;\r\n  }\r\n\r\n  function sendTransfer(uint id) onlyApprover() external {\r\n    require(transfers[id].sent == false, 'transfer has already been sent');\r\n    //BUG CORRECTION: this was put at the end of function in smart-contract part. Here is the correct place\r\n    if(approvals[msg.sender][id] == false) {\r\n      approvals[msg.sender][id] = true;\r\n      transfers[id].approvals++;\r\n    }\r\n    if(transfers[id].approvals >= quorum) {\r\n      transfers[id].sent = true;\r\n      address payable to = transfers[id].to;\r\n      uint amount = transfers[id].amount;\r\n      to.transfer(amount);\r\n      return;\r\n    }\r\n  }\r\n\r\n  modifier onlyApprover() {\r\n    bool allowed = false;\r\n    for(uint i; i < approvers.length; i++) {\r\n      if(approvers[i] == msg.sender) {\r\n        allowed = true;\r\n      }\r\n    }\r\n    require(allowed == true, 'only approver allowed');\r\n    _;\r\n  }\r\n}\r\n",
  "sourcePath": "C:/Users/Gabryel Hall/desktop/smart/multisigwallet/contracts/MultiSigWallet.sol",
  "compiler": {
    "name": "solc",
    "version": "0.5.2+commit.1df8f40c.Emscripten.clang"
  },
  "schemaVersion": "3.3.2",
  "updatedAt": "2021-01-03T12:11:13.170Z",
  "networkType": "ethereum",
  "devdoc": {
    "methods": {}
  },
  "userdoc": {
    "methods": {}
  }
}